{
  "address": "0x5FbDB2315678afecb367f032d93F642f64180aa3",
  "abi": [
    {
      "inputs": [
        {
          "internalType": "uint256",
          "name": "rewards",
          "type": "uint256"
        },
        {
          "internalType": "uint256",
          "name": "stakeLimitDate",
          "type": "uint256"
        }
      ],
      "stateMutability": "nonpayable",
      "type": "constructor"
    },
    {
      "anonymous": false,
      "inputs": [
        {
          "indexed": true,
          "internalType": "bytes32",
          "name": "role",
          "type": "bytes32"
        },
        {
          "indexed": true,
          "internalType": "bytes32",
          "name": "previousAdminRole",
          "type": "bytes32"
        },
        {
          "indexed": true,
          "internalType": "bytes32",
          "name": "newAdminRole",
          "type": "bytes32"
        }
      ],
      "name": "RoleAdminChanged",
      "type": "event"
    },
    {
      "anonymous": false,
      "inputs": [
        {
          "indexed": true,
          "internalType": "bytes32",
          "name": "role",
          "type": "bytes32"
        },
        {
          "indexed": true,
          "internalType": "address",
          "name": "account",
          "type": "address"
        },
        {
          "indexed": true,
          "internalType": "address",
          "name": "sender",
          "type": "address"
        }
      ],
      "name": "RoleGranted",
      "type": "event"
    },
    {
      "anonymous": false,
      "inputs": [
        {
          "indexed": true,
          "internalType": "bytes32",
          "name": "role",
          "type": "bytes32"
        },
        {
          "indexed": true,
          "internalType": "address",
          "name": "account",
          "type": "address"
        },
        {
          "indexed": true,
          "internalType": "address",
          "name": "sender",
          "type": "address"
        }
      ],
      "name": "RoleRevoked",
      "type": "event"
    },
    {
      "inputs": [],
      "name": "DEFAULT_ADMIN_ROLE",
      "outputs": [
        {
          "internalType": "bytes32",
          "name": "",
          "type": "bytes32"
        }
      ],
      "stateMutability": "view",
      "type": "function"
    },
    {
      "inputs": [],
      "name": "OWNER",
      "outputs": [
        {
          "internalType": "bytes32",
          "name": "",
          "type": "bytes32"
        }
      ],
      "stateMutability": "view",
      "type": "function"
    },
    {
      "inputs": [],
      "name": "TEAM_MEMBER",
      "outputs": [
        {
          "internalType": "bytes32",
          "name": "",
          "type": "bytes32"
        }
      ],
      "stateMutability": "view",
      "type": "function"
    },
    {
      "inputs": [
        {
          "internalType": "address",
          "name": "",
          "type": "address"
        }
      ],
      "name": "addressToDeposits",
      "outputs": [
        {
          "internalType": "uint256",
          "name": "firstRewardId",
          "type": "uint256"
        },
        {
          "internalType": "uint256",
          "name": "depositDate",
          "type": "uint256"
        },
        {
          "internalType": "uint256",
          "name": "amount",
          "type": "uint256"
        }
      ],
      "stateMutability": "view",
      "type": "function"
    },
    {
      "inputs": [],
      "name": "currentRewardId",
      "outputs": [
        {
          "internalType": "uint256",
          "name": "",
          "type": "uint256"
        }
      ],
      "stateMutability": "view",
      "type": "function"
    },
    {
      "inputs": [],
      "name": "currentRewardTotalDeposits",
      "outputs": [
        {
          "internalType": "uint256",
          "name": "",
          "type": "uint256"
        }
      ],
      "stateMutability": "view",
      "type": "function"
    },
    {
      "inputs": [],
      "name": "depositCurrentRewards",
      "outputs": [],
      "stateMutability": "payable",
      "type": "function"
    },
    {
      "inputs": [],
      "name": "emergencyUnstake",
      "outputs": [],
      "stateMutability": "nonpayable",
      "type": "function"
    },
    {
      "inputs": [],
      "name": "getCurrentPromisedRewards",
      "outputs": [
        {
          "internalType": "uint256",
          "name": "",
          "type": "uint256"
        }
      ],
      "stateMutability": "view",
      "type": "function"
    },
    {
      "inputs": [],
      "name": "getCurrentRewardDate",
      "outputs": [
        {
          "internalType": "uint256",
          "name": "",
          "type": "uint256"
        }
      ],
      "stateMutability": "view",
      "type": "function"
    },
    {
      "inputs": [],
      "name": "getCurrentStakeLimitDate",
      "outputs": [
        {
          "internalType": "uint256",
          "name": "",
          "type": "uint256"
        }
      ],
      "stateMutability": "view",
      "type": "function"
    },
    {
      "inputs": [
        {
          "internalType": "address",
          "name": "account",
          "type": "address"
        }
      ],
      "name": "getPaidedRewards",
      "outputs": [
        {
          "internalType": "uint256",
          "name": "",
          "type": "uint256"
        }
      ],
      "stateMutability": "view",
      "type": "function"
    },
    {
      "inputs": [
        {
          "internalType": "bytes32",
          "name": "role",
          "type": "bytes32"
        }
      ],
      "name": "getRoleAdmin",
      "outputs": [
        {
          "internalType": "bytes32",
          "name": "",
          "type": "bytes32"
        }
      ],
      "stateMutability": "view",
      "type": "function"
    },
    {
      "inputs": [
        {
          "internalType": "bytes32",
          "name": "role",
          "type": "bytes32"
        },
        {
          "internalType": "address",
          "name": "account",
          "type": "address"
        }
      ],
      "name": "grantRole",
      "outputs": [],
      "stateMutability": "nonpayable",
      "type": "function"
    },
    {
      "inputs": [
        {
          "internalType": "bytes32",
          "name": "role",
          "type": "bytes32"
        },
        {
          "internalType": "address",
          "name": "account",
          "type": "address"
        }
      ],
      "name": "hasRole",
      "outputs": [
        {
          "internalType": "bool",
          "name": "",
          "type": "bool"
        }
      ],
      "stateMutability": "view",
      "type": "function"
    },
    {
      "inputs": [
        {
          "internalType": "uint256",
          "name": "newRewards",
          "type": "uint256"
        }
      ],
      "name": "modifyNextRewards",
      "outputs": [],
      "stateMutability": "nonpayable",
      "type": "function"
    },
    {
      "inputs": [
        {
          "internalType": "uint256",
          "name": "newDate",
          "type": "uint256"
        }
      ],
      "name": "modifyNextRewardsStakeLimitDate",
      "outputs": [],
      "stateMutability": "nonpayable",
      "type": "function"
    },
    {
      "inputs": [
        {
          "internalType": "bytes32",
          "name": "role",
          "type": "bytes32"
        },
        {
          "internalType": "address",
          "name": "account",
          "type": "address"
        }
      ],
      "name": "renounceRole",
      "outputs": [],
      "stateMutability": "nonpayable",
      "type": "function"
    },
    {
      "inputs": [
        {
          "internalType": "bytes32",
          "name": "role",
          "type": "bytes32"
        },
        {
          "internalType": "address",
          "name": "account",
          "type": "address"
        }
      ],
      "name": "revokeRole",
      "outputs": [],
      "stateMutability": "nonpayable",
      "type": "function"
    },
    {
      "inputs": [
        {
          "internalType": "uint256",
          "name": "",
          "type": "uint256"
        }
      ],
      "name": "rewardIdToRewardsInfo",
      "outputs": [
        {
          "internalType": "uint256",
          "name": "rewardId",
          "type": "uint256"
        },
        {
          "internalType": "uint256",
          "name": "stakeLimitDate",
          "type": "uint256"
        },
        {
          "internalType": "uint256",
          "name": "totalDeposits",
          "type": "uint256"
        },
        {
          "internalType": "uint256",
          "name": "amount",
          "type": "uint256"
        }
      ],
      "stateMutability": "view",
      "type": "function"
    },
    {
      "inputs": [
        {
          "internalType": "uint256",
          "name": "rewards",
          "type": "uint256"
        },
        {
          "internalType": "uint256",
          "name": "stakeLimitDate",
          "type": "uint256"
        }
      ],
      "name": "setNextRewards",
      "outputs": [],
      "stateMutability": "nonpayable",
      "type": "function"
    },
    {
      "inputs": [
        {
          "internalType": "bytes4",
          "name": "interfaceId",
          "type": "bytes4"
        }
      ],
      "name": "supportsInterface",
      "outputs": [
        {
          "internalType": "bool",
          "name": "",
          "type": "bool"
        }
      ],
      "stateMutability": "view",
      "type": "function"
    },
    {
      "inputs": [],
      "name": "totalDeposits",
      "outputs": [
        {
          "internalType": "uint256",
          "name": "",
          "type": "uint256"
        }
      ],
      "stateMutability": "view",
      "type": "function"
    },
    {
      "inputs": [],
      "name": "unstake",
      "outputs": [],
      "stateMutability": "nonpayable",
      "type": "function"
    },
    {
      "stateMutability": "payable",
      "type": "receive"
    }
  ],
  "transactionHash": "0x7651f4e178379996b3310f613d30b358d9371cd4bae1460d56929ea2184c2d10",
  "args": [
    "1000000000000000000",
    1647787689
  ],
  "numDeployments": 1,
  "solcInputHash": "cc984240ee0114ba71070f0dab7a5dfd",
  "bytecode": "0x60806040523480156200001157600080fd5b5060405162003070380380620030708339818101604052810190620000379190620003f4565b600082116200007d576040517f08c379a00000000000000000000000000000000000000000000000000000000081526004016200007490620004a5565b60405180910390fd5b62015180426200008e9190620004d8565b8111620000d2576040517f08c379a0000000000000000000000000000000000000000000000000000000008152600401620000c99062000483565b60405180910390fd5b620001047f6270edb7c868f86fda4adedba75108201087268ea345934db8bad688e1feb91b80620001f860201b60201c565b620001567f6a74bd5720a9ba372841f356cf6872b1006d19dfc367da64ab98cf47824ed3c07f6270edb7c868f86fda4adedba75108201087268ea345934db8bad688e1feb91b620001f860201b60201c565b620001887f6270edb7c868f86fda4adedba75108201087268ea345934db8bad688e1feb91b336200025b60201b60201c565b620001ba7f6a74bd5720a9ba372841f356cf6872b1006d19dfc367da64ab98cf47824ed3c0336200025b60201b60201c565b806004600080815260200190815260200160002060010181905550816004600080815260200190815260200160002060030181905550505062000600565b60006200020b836200034c60201b60201c565b905081600080858152602001908152602001600020600101819055508181847fbd79b86ffe0ab8e8776151514217cd7cacd52c909f66475c3af44e129f0b00ff60405160405180910390a4505050565b6200026d82826200036b60201b60201c565b6200034857600160008084815260200190815260200160002060000160008373ffffffffffffffffffffffffffffffffffffffff1673ffffffffffffffffffffffffffffffffffffffff16815260200190815260200160002060006101000a81548160ff021916908315150217905550620002ed620003d560201b60201c565b73ffffffffffffffffffffffffffffffffffffffff168173ffffffffffffffffffffffffffffffffffffffff16837f2f8788117e7eff1d82e926ec794901d17c78024a50270940304540a733656f0d60405160405180910390a45b5050565b6000806000838152602001908152602001600020600101549050919050565b600080600084815260200190815260200160002060000160008373ffffffffffffffffffffffffffffffffffffffff1673ffffffffffffffffffffffffffffffffffffffff16815260200190815260200160002060009054906101000a900460ff16905092915050565b600033905090565b600081519050620003ee81620005e6565b92915050565b600080604083850312156200040857600080fd5b60006200041885828601620003dd565b92505060206200042b85828601620003dd565b9150509250929050565b600062000444603a83620004c7565b915062000451826200056e565b604082019050919050565b60006200046b601383620004c7565b91506200047882620005bd565b602082019050919050565b600060208201905081810360008301526200049e8162000435565b9050919050565b60006020820190508181036000830152620004c0816200045c565b9050919050565b600082825260208201905092915050565b6000620004e58262000535565b9150620004f28362000535565b9250827fffffffffffffffffffffffffffffffffffffffffffffffffffffffffffffffff038211156200052a57620005296200053f565b5b828201905092915050565b6000819050919050565b7f4e487b7100000000000000000000000000000000000000000000000000000000600052601160045260246000fd5b7f5374616b65206c696d697420646174652073686f756c64206265206174206c6560008201527f6173742031206461792066757268746572207468616e206e6f77000000000000602082015250565b7f72657761726473206d757374206265203e203000000000000000000000000000600082015250565b620005f18162000535565b8114620005fd57600080fd5b50565b612a6080620006106000396000f3fe60806040526004361061014f5760003560e01c80637589cf2f116100b65780639dbb55f81161006f5780639dbb55f814610460578063a217fddf146104a0578063a4bfaddf146104cb578063a9dc1bcf146104f6578063d547741f14610521578063d70c063b1461054a5761015e565b80637589cf2f1461034e5780637c73616c146103655780637d882097146103a45780638ca204a0146103cf57806391d14854146103fa57806399cb4ba2146104375761015e565b80632def6620116101085780632def6620146102875780632f2ff15d1461029e57806336568abe146102c75780634365dafa146102f05780634dbd8b90146102fa5780636b48ac17146103255761015e565b806301ffc9a7146101635780630430050c146101a05780630e0fc51e146101cb578063117803e3146101f4578063248a9ca31461021f5780632c4c7f8c1461025c5761015e565b3661015e5761015c610587565b005b600080fd5b34801561016f57600080fd5b5061018a60048036038101906101859190611b8b565b6107f9565b6040516101979190611f3d565b60405180910390f35b3480156101ac57600080fd5b506101b5610873565b6040516101c29190612175565b60405180910390f35b3480156101d757600080fd5b506101f260048036038101906101ed9190611bb4565b610893565b005b34801561020057600080fd5b50610209610993565b6040516102169190611f58565b60405180910390f35b34801561022b57600080fd5b5061024660048036038101906102419190611b26565b6109b7565b6040516102539190611f58565b60405180910390f35b34801561026857600080fd5b506102716109d6565b60405161027e9190611f58565b60405180910390f35b34801561029357600080fd5b5061029c6109fa565b005b3480156102aa57600080fd5b506102c560048036038101906102c09190611b4f565b610a72565b005b3480156102d357600080fd5b506102ee60048036038101906102e99190611b4f565b610a9b565b005b6102f8610b1e565b005b34801561030657600080fd5b5061030f610cdf565b60405161031c9190612175565b60405180910390f35b34801561033157600080fd5b5061034c60048036038101906103479190611bb4565b610d0d565b005b34801561035a57600080fd5b50610363610e99565b005b34801561037157600080fd5b5061038c60048036038101906103879190611afd565b610ea3565b60405161039b93929190612190565b60405180910390f35b3480156103b057600080fd5b506103b9610ecd565b6040516103c69190612175565b60405180910390f35b3480156103db57600080fd5b506103e4610ed3565b6040516103f19190612175565b60405180910390f35b34801561040657600080fd5b50610421600480360381019061041c9190611b4f565b610ed9565b60405161042e9190611f3d565b60405180910390f35b34801561044357600080fd5b5061045e60048036038101906104599190611bdd565b610f43565b005b34801561046c57600080fd5b5061048760048036038101906104829190611bb4565b611120565b60405161049794939291906121c7565b60405180910390f35b3480156104ac57600080fd5b506104b5611150565b6040516104c29190611f58565b60405180910390f35b3480156104d757600080fd5b506104e0611157565b6040516104ed9190612175565b60405180910390f35b34801561050257600080fd5b5061050b61115d565b6040516105189190612175565b60405180910390f35b34801561052d57600080fd5b5061054860048036038101906105439190611b4f565b61117d565b005b34801561055657600080fd5b50610571600480360381019061056c9190611afd565b6111a6565b60405161057e9190612175565b60405180910390f35b60006001549050600060046000838152602001908152602001600020604051806080016040529081600082015481526020016001820154815260200160028201548152602001600382015481525050905060008160200151905062093a80816105f09190612233565b4210610631576040517f08c379a0000000000000000000000000000000000000000000000000000000008152600401610628906120b5565b60405180910390fd5b6000839050600061064061123c565b90506000600560008373ffffffffffffffffffffffffffffffffffffffff1673ffffffffffffffffffffffffffffffffffffffff168152602001908152602001600020604051806060016040529081600082015481526020016001820154815260200160028201548152505090506000844211905080156106cb576001846106c89190612233565b93505b60003490506000836040015114156107295784600560008673ffffffffffffffffffffffffffffffffffffffff1673ffffffffffffffffffffffffffffffffffffffff16815260200190815260200160002060000181905550610770565b8483600001511461076f576040517f08c379a000000000000000000000000000000000000000000000000000000000815260040161076690612075565b60405180910390fd5b5b8161078f5780600260008282546107879190612233565b925050819055505b80600360008282546107a19190612233565b9250508190555080600560008673ffffffffffffffffffffffffffffffffffffffff1673ffffffffffffffffffffffffffffffffffffffff168152602001908152602001600020600201819055505050505050505050565b60007f7965db0b000000000000000000000000000000000000000000000000000000007bffffffffffffffffffffffffffffffffffffffffffffffffffffffff1916827bffffffffffffffffffffffffffffffffffffffffffffffffffffffff1916148061086c575061086b82611244565b5b9050919050565b600060046000600154815260200190815260200160002060030154905090565b7f6270edb7c868f86fda4adedba75108201087268ea345934db8bad688e1feb91b6108c5816108c061123c565b6112ae565b6000600180546108d59190612233565b90506000600460008381526020019081526020016000206003015411610930576040517f08c379a000000000000000000000000000000000000000000000000000000000815260040161092790612135565b60405180910390fd5b60008311610973576040517f08c379a000000000000000000000000000000000000000000000000000000000815260040161096a90612035565b60405180910390fd5b826004600083815260200190815260200160002060030181905550505050565b7f6270edb7c868f86fda4adedba75108201087268ea345934db8bad688e1feb91b81565b6000806000838152602001908152602001600020600101549050919050565b7f6a74bd5720a9ba372841f356cf6872b1006d19dfc367da64ab98cf47824ed3c081565b600062093a8060046000600154815260200190815260200160002060010154610a239190612233565b9050428111610a67576040517f08c379a0000000000000000000000000000000000000000000000000000000008152600401610a5e90612015565b60405180910390fd5b610a6f61134b565b50565b610a7b826109b7565b610a8c81610a8761123c565b6112ae565b610a9683836114e1565b505050565b610aa361123c565b73ffffffffffffffffffffffffffffffffffffffff168173ffffffffffffffffffffffffffffffffffffffff1614610b10576040517f08c379a0000000000000000000000000000000000000000000000000000000008152600401610b0790612155565b60405180910390fd5b610b1a82826115c1565b5050565b7f6a74bd5720a9ba372841f356cf6872b1006d19dfc367da64ab98cf47824ed3c0610b5081610b4b61123c565b6112ae565b60006001549050600060046000838152602001908152602001600020604051806080016040529081600082015481526020016001820154815260200160028201548152602001600382015481525050905080606001513414610be7576040517f08c379a0000000000000000000000000000000000000000000000000000000008152600401610bde90612095565b60405180910390fd5b600062093a808260200151610bfc9190612233565b905080421015610c41576040517f08c379a0000000000000000000000000000000000000000000000000000000008152600401610c3890611fb5565b60405180910390fd5b6000600184610c509190612233565b90506000600460008381526020019081526020016000206003015411610cab576040517f08c379a0000000000000000000000000000000000000000000000000000000008152600401610ca290612055565b60405180910390fd5b6002546004600086815260200190815260200160002060020181905550806001819055506003546002819055505050505050565b600062093a8060046000600154815260200190815260200160002060010154610d089190612233565b905090565b7f6270edb7c868f86fda4adedba75108201087268ea345934db8bad688e1feb91b610d3f81610d3a61123c565b6112ae565b6201518042610d4e9190612233565b8211610d8f576040517f08c379a0000000000000000000000000000000000000000000000000000000008152600401610d8690611ff5565b60405180910390fd5b600060018054610d9f9190612233565b905060006004600083815260200190815260200160002060405180608001604052908160008201548152602001600182015481526020016002820154815260200160038201548152505090506000816060015111610e32576040517f08c379a0000000000000000000000000000000000000000000000000000000008152600401610e2990612135565b60405180910390fd5b42816020015110610e78576040517f08c379a0000000000000000000000000000000000000000000000000000000008152600401610e6f90612135565b60405180910390fd5b83600460008481526020019081526020016000206001018190555050505050565b610ea161134b565b565b60056020528060005260406000206000915090508060000154908060010154908060020154905083565b60035481565b60025481565b600080600084815260200190815260200160002060000160008373ffffffffffffffffffffffffffffffffffffffff1673ffffffffffffffffffffffffffffffffffffffff16815260200190815260200160002060009054906101000a900460ff16905092915050565b7f6270edb7c868f86fda4adedba75108201087268ea345934db8bad688e1feb91b610f7581610f7061123c565b6112ae565b60008311610fb8576040517f08c379a0000000000000000000000000000000000000000000000000000000008152600401610faf906120f5565b60405180910390fd5b6201518042610fc79190612233565b8211611008576040517f08c379a0000000000000000000000000000000000000000000000000000000008152600401610fff90612115565b60405180910390fd5b60006001549050600060018261101e9190612233565b905083620a8c0060046000858152602001908152602001600020600101546110469190612233565b1115611087576040517f08c379a000000000000000000000000000000000000000000000000000000000815260040161107e906120d5565b60405180910390fd5b600060046000838152602001908152602001600020600301549050600081146110e5576040517f08c379a00000000000000000000000000000000000000000000000000000000081526004016110dc90611fd5565b60405180910390fd5b600060046000848152602001908152602001600020905082816000018190555086816003018190555085816001018190555050505050505050565b60046020528060005260406000206000915090508060000154908060010154908060020154908060030154905084565b6000801b81565b60015481565b600060046000600154815260200190815260200160002060010154905090565b611186826109b7565b6111978161119261123c565b6112ae565b6111a183836115c1565b505050565b600080600560008473ffffffffffffffffffffffffffffffffffffffff1673ffffffffffffffffffffffffffffffffffffffff1681526020019081526020016000206040518060600160405290816000820154815260200160018201548152602001600282015481525050905060008160400151141561122a576000915050611237565b611233816116a2565b9150505b919050565b600033905090565b60007f01ffc9a7000000000000000000000000000000000000000000000000000000007bffffffffffffffffffffffffffffffffffffffffffffffffffffffff1916827bffffffffffffffffffffffffffffffffffffffffffffffffffffffff1916149050919050565b6112b88282610ed9565b611347576112dd8173ffffffffffffffffffffffffffffffffffffffff166014611787565b6112eb8360001c6020611787565b6040516020016112fc929190611f03565b6040516020818303038152906040526040517f08c379a000000000000000000000000000000000000000000000000000000000815260040161133e9190611f73565b60405180910390fd5b5050565b60006005600061135961123c565b73ffffffffffffffffffffffffffffffffffffffff1673ffffffffffffffffffffffffffffffffffffffff168152602001908152602001600020604051806060016040529081600082015481526020016001820154815260200160028201548152505090506000600254905060006113d0836116a2565b90506113da61123c565b73ffffffffffffffffffffffffffffffffffffffff166108fc8285604001516114039190612233565b9081150290604051600060405180830381858888f1935050505015801561142e573d6000803e3d6000fd5b5082604001518261143f9190612314565b915081600281905550816004600060015481526020019081526020016000206002018190555060006005600061147361123c565b73ffffffffffffffffffffffffffffffffffffffff1673ffffffffffffffffffffffffffffffffffffffff168152602001908152602001600020600201819055508260400151600360008282546114ca9190612314565b925050819055506000836040018181525050505050565b6114eb8282610ed9565b6115bd57600160008084815260200190815260200160002060000160008373ffffffffffffffffffffffffffffffffffffffff1673ffffffffffffffffffffffffffffffffffffffff16815260200190815260200160002060006101000a81548160ff02191690831515021790555061156261123c565b73ffffffffffffffffffffffffffffffffffffffff168173ffffffffffffffffffffffffffffffffffffffff16837f2f8788117e7eff1d82e926ec794901d17c78024a50270940304540a733656f0d60405160405180910390a45b5050565b6115cb8282610ed9565b1561169e57600080600084815260200190815260200160002060000160008373ffffffffffffffffffffffffffffffffffffffff1673ffffffffffffffffffffffffffffffffffffffff16815260200190815260200160002060006101000a81548160ff02191690831515021790555061164361123c565b73ffffffffffffffffffffffffffffffffffffffff168173ffffffffffffffffffffffffffffffffffffffff16837ff6391f5c32d9c69d2a47ea670b442974b53935d1edc7fd64eb21e047a839171b60405160405180910390a45b5050565b6000806000600154905060008460400151905060008114806116c75750846000015182145b156116d85760009350505050611782565b6116e0611a81565b6000866000015190505b8381101561177957600460008281526020019081526020016000206040518060800160405290816000820154815260200160018201548152602001600282015481526020016003820154815250509150816060015182604001518461174f9190612289565b61175991906122ba565b856117649190612233565b9450808061177190612423565b9150506116ea565b50839450505050505b919050565b60606000600283600261179a91906122ba565b6117a49190612233565b67ffffffffffffffff8111156117e3577f4e487b7100000000000000000000000000000000000000000000000000000000600052604160045260246000fd5b6040519080825280601f01601f1916602001820160405280156118155781602001600182028036833780820191505090505b5090507f300000000000000000000000000000000000000000000000000000000000000081600081518110611873577f4e487b7100000000000000000000000000000000000000000000000000000000600052603260045260246000fd5b60200101907effffffffffffffffffffffffffffffffffffffffffffffffffffffffffffff1916908160001a9053507f7800000000000000000000000000000000000000000000000000000000000000816001815181106118fd577f4e487b7100000000000000000000000000000000000000000000000000000000600052603260045260246000fd5b60200101907effffffffffffffffffffffffffffffffffffffffffffffffffffffffffffff1916908160001a9053506000600184600261193d91906122ba565b6119479190612233565b90505b6001811115611a33577f3031323334353637383961626364656600000000000000000000000000000000600f8616601081106119af577f4e487b7100000000000000000000000000000000000000000000000000000000600052603260045260246000fd5b1a60f81b8282815181106119ec577f4e487b7100000000000000000000000000000000000000000000000000000000600052603260045260246000fd5b60200101907effffffffffffffffffffffffffffffffffffffffffffffffffffffffffffff1916908160001a905350600485901c945080611a2c906123f9565b905061194a565b5060008414611a77576040517f08c379a0000000000000000000000000000000000000000000000000000000008152600401611a6e90611f95565b60405180910390fd5b8091505092915050565b6040518060800160405280600081526020016000815260200160008152602001600081525090565b600081359050611ab8816129ce565b92915050565b600081359050611acd816129e5565b92915050565b600081359050611ae2816129fc565b92915050565b600081359050611af781612a13565b92915050565b600060208284031215611b0f57600080fd5b6000611b1d84828501611aa9565b91505092915050565b600060208284031215611b3857600080fd5b6000611b4684828501611abe565b91505092915050565b60008060408385031215611b6257600080fd5b6000611b7085828601611abe565b9250506020611b8185828601611aa9565b9150509250929050565b600060208284031215611b9d57600080fd5b6000611bab84828501611ad3565b91505092915050565b600060208284031215611bc657600080fd5b6000611bd484828501611ae8565b91505092915050565b60008060408385031215611bf057600080fd5b6000611bfe85828601611ae8565b9250506020611c0f85828601611ae8565b9150509250929050565b611c228161235a565b82525050565b611c3181612366565b82525050565b6000611c428261220c565b611c4c8185612217565b9350611c5c8185602086016123c6565b611c65816124ca565b840191505092915050565b6000611c7b8261220c565b611c858185612228565b9350611c958185602086016123c6565b80840191505092915050565b6000611cae602083612217565b9150611cb9826124db565b602082019050919050565b6000611cd1601b83612217565b9150611cdc82612504565b602082019050919050565b6000611cf4601583612217565b9150611cff8261252d565b602082019050919050565b6000611d17603a83612217565b9150611d2282612556565b604082019050919050565b6000611d3a60a383612217565b9150611d45826125a5565b60c082019050919050565b6000611d5d601883612217565b9150611d688261268c565b602082019050919050565b6000611d80603b83612217565b9150611d8b826126b5565b604082019050919050565b6000611da3604783612217565b9150611dae82612704565b606082019050919050565b6000611dc6602083612217565b9150611dd182612779565b602082019050919050565b6000611de9603a83612217565b9150611df4826127a2565b604082019050919050565b6000611e0c605783612217565b9150611e17826127f1565b606082019050919050565b6000611e2f601383612217565b9150611e3a82612866565b602082019050919050565b6000611e52601783612228565b9150611e5d8261288f565b601782019050919050565b6000611e75603a83612217565b9150611e80826128b8565b604082019050919050565b6000611e98602683612217565b9150611ea382612907565b604082019050919050565b6000611ebb601183612228565b9150611ec682612956565b601182019050919050565b6000611ede602f83612217565b9150611ee98261297f565b604082019050919050565b611efd816123bc565b82525050565b6000611f0e82611e45565b9150611f1a8285611c70565b9150611f2582611eae565b9150611f318284611c70565b91508190509392505050565b6000602082019050611f526000830184611c19565b92915050565b6000602082019050611f6d6000830184611c28565b92915050565b60006020820190508181036000830152611f8d8184611c37565b905092915050565b60006020820190508181036000830152611fae81611ca1565b9050919050565b60006020820190508181036000830152611fce81611cc4565b9050919050565b60006020820190508181036000830152611fee81611ce7565b9050919050565b6000602082019050818103600083015261200e81611d0a565b9050919050565b6000602082019050818103600083015261202e81611d2d565b9050919050565b6000602082019050818103600083015261204e81611d50565b9050919050565b6000602082019050818103600083015261206e81611d73565b9050919050565b6000602082019050818103600083015261208e81611d96565b9050919050565b600060208201905081810360008301526120ae81611db9565b9050919050565b600060208201905081810360008301526120ce81611ddc565b9050919050565b600060208201905081810360008301526120ee81611dff565b9050919050565b6000602082019050818103600083015261210e81611e22565b9050919050565b6000602082019050818103600083015261212e81611e68565b9050919050565b6000602082019050818103600083015261214e81611e8b565b9050919050565b6000602082019050818103600083015261216e81611ed1565b9050919050565b600060208201905061218a6000830184611ef4565b92915050565b60006060820190506121a56000830186611ef4565b6121b26020830185611ef4565b6121bf6040830184611ef4565b949350505050565b60006080820190506121dc6000830187611ef4565b6121e96020830186611ef4565b6121f66040830185611ef4565b6122036060830184611ef4565b95945050505050565b600081519050919050565b600082825260208201905092915050565b600081905092915050565b600061223e826123bc565b9150612249836123bc565b9250827fffffffffffffffffffffffffffffffffffffffffffffffffffffffffffffffff0382111561227e5761227d61246c565b5b828201905092915050565b6000612294826123bc565b915061229f836123bc565b9250826122af576122ae61249b565b5b828204905092915050565b60006122c5826123bc565b91506122d0836123bc565b9250817fffffffffffffffffffffffffffffffffffffffffffffffffffffffffffffffff04831182151516156123095761230861246c565b5b828202905092915050565b600061231f826123bc565b915061232a836123bc565b92508282101561233d5761233c61246c565b5b828203905092915050565b60006123538261239c565b9050919050565b60008115159050919050565b6000819050919050565b60007fffffffff0000000000000000000000000000000000000000000000000000000082169050919050565b600073ffffffffffffffffffffffffffffffffffffffff82169050919050565b6000819050919050565b60005b838110156123e45780820151818401526020810190506123c9565b838111156123f3576000848401525b50505050565b6000612404826123bc565b915060008214156124185761241761246c565b5b600182039050919050565b600061242e826123bc565b91507fffffffffffffffffffffffffffffffffffffffffffffffffffffffffffffffff8214156124615761246061246c565b5b600182019050919050565b7f4e487b7100000000000000000000000000000000000000000000000000000000600052601160045260246000fd5b7f4e487b7100000000000000000000000000000000000000000000000000000000600052601260045260246000fd5b6000601f19601f8301169050919050565b7f537472696e67733a20686578206c656e67746820696e73756666696369656e74600082015250565b7f546f6f20736f6f6e20746f206465706f73697420726577617264730000000000600082015250565b7f52657761726420616c7265616479207365747465640000000000000000000000600082015250565b7f5374616b65206c696d697420646174652073686f756c64206265206174206c6560008201527f6173742031206461792066757268746572207468616e206e6f77000000000000602082015250565b7f43757272656e742070656e64696e672072657761726473206861736e2774206260008201527f65656e2070616964207965742c20756e7374616b6520776f6e277420616c6c6f60208201527f7720796f7520746f20636c61696d207468656d2e2055736520656d657267656e60408201527f6379556e7374616b65206675626374696f6e20696620796f752061726520776960608201527f6c6c696e6720746f206c6f7365206f6e6c7920746865206c617374207265776160808201527f726473000000000000000000000000000000000000000000000000000000000060a082015250565b7f6e6577526577617264732073686f756c64206265203e20300000000000000000600082015250565b7f596f75206d75737420736574206e6578742072657761726473206265666f726560008201527f206465706f736974696e672063757272656e7420726577617264730000000000602082015250565b7f4974206973206e656564656420746f20756e7374616b6520666972737420696e60008201527f206f7264657220746f20636c61696d20616c6c207468652070656e64696e672060208201527f7265776172647300000000000000000000000000000000000000000000000000604082015250565b7f496e636f727265637420616d6f756e74206f6620726577617264732073656e74600082015250565b7f5761697420756e74696c2063757272656e74207265776172647320617265206160008201527f6c72656164792070616964206265666f7265207374616b696e67000000000000602082015250565b7f4e657874207374616b65206c696d697420646174652073686f756c642062652060008201527f677265617465722f657175616c207468616e203820646179732061667465722060208201527f7468652063757272656e74207265776172642064617465000000000000000000604082015250565b7f72657761726473206d757374206265203e203000000000000000000000000000600082015250565b7f416363657373436f6e74726f6c3a206163636f756e7420000000000000000000600082015250565b7f5374616b65206c696d697420646174652073686f756c64206265206174206c6560008201527f6173742031206461792066757274686572207468616e206e6f77000000000000602082015250565b7f596f752073686f756c6420757365207365744e6578745265776172647320667560008201527f6e6374696f6e0000000000000000000000000000000000000000000000000000602082015250565b7f206973206d697373696e6720726f6c6520000000000000000000000000000000600082015250565b7f416363657373436f6e74726f6c3a2063616e206f6e6c792072656e6f756e636560008201527f20726f6c657320666f722073656c660000000000000000000000000000000000602082015250565b6129d781612348565b81146129e257600080fd5b50565b6129ee81612366565b81146129f957600080fd5b50565b612a0581612370565b8114612a1057600080fd5b50565b612a1c816123bc565b8114612a2757600080fd5b5056fea264697066735822122029d9efc92e1c840664a58f34a2fe52f3522b9ed03ba9a529fc04bc019b4ecbdd64736f6c63430008040033",
  "devdoc": {
    "kind": "dev",
    "methods": {
      "getRoleAdmin(bytes32)": {
        "details": "Returns the admin role that controls `role`. See {grantRole} and {revokeRole}. To change a role's admin, use {_setRoleAdmin}."
      },
      "grantRole(bytes32,address)": {
        "details": "Grants `role` to `account`. If `account` had not been already granted `role`, emits a {RoleGranted} event. Requirements: - the caller must have ``role``'s admin role."
      },
      "hasRole(bytes32,address)": {
        "details": "Returns `true` if `account` has been granted `role`."
      },
      "renounceRole(bytes32,address)": {
        "details": "Revokes `role` from the calling account. Roles are often managed via {grantRole} and {revokeRole}: this function's purpose is to provide a mechanism for accounts to lose their privileges if they are compromised (such as when a trusted device is misplaced). If the calling account had been revoked `role`, emits a {RoleRevoked} event. Requirements: - the caller must be `account`."
      },
      "revokeRole(bytes32,address)": {
        "details": "Revokes `role` from `account`. If `account` had been granted `role`, emits a {RoleRevoked} event. Requirements: - the caller must have ``role``'s admin role."
      },
      "supportsInterface(bytes4)": {
        "details": "See {IERC165-supportsInterface}."
      }
    },
    "version": 1
  },
  "userdoc": {
    "kind": "user",
    "methods": {},
    "version": 1
  },
  "storageLayout": {
    "storage": [
      {
        "astId": 24,
        "contract": "contracts/ETHPool.sol:ETHPool",
        "label": "_roles",
        "offset": 0,
        "slot": "0",
        "type": "t_mapping(t_bytes32,t_struct(RoleData)19_storage)"
      },
      {
        "astId": 679,
        "contract": "contracts/ETHPool.sol:ETHPool",
        "label": "currentRewardId",
        "offset": 0,
        "slot": "1",
        "type": "t_uint256"
      },
      {
        "astId": 681,
        "contract": "contracts/ETHPool.sol:ETHPool",
        "label": "currentRewardTotalDeposits",
        "offset": 0,
        "slot": "2",
        "type": "t_uint256"
      },
      {
        "astId": 683,
        "contract": "contracts/ETHPool.sol:ETHPool",
        "label": "totalDeposits",
        "offset": 0,
        "slot": "3",
        "type": "t_uint256"
      },
      {
        "astId": 688,
        "contract": "contracts/ETHPool.sol:ETHPool",
        "label": "rewardIdToRewardsInfo",
        "offset": 0,
        "slot": "4",
        "type": "t_mapping(t_uint256,t_struct(RewardsInfo)667_storage)"
      },
      {
        "astId": 693,
        "contract": "contracts/ETHPool.sol:ETHPool",
        "label": "addressToDeposits",
        "offset": 0,
        "slot": "5",
        "type": "t_mapping(t_address,t_struct(Deposit)674_storage)"
      }
    ],
    "types": {
      "t_address": {
        "encoding": "inplace",
        "label": "address",
        "numberOfBytes": "20"
      },
      "t_bool": {
        "encoding": "inplace",
        "label": "bool",
        "numberOfBytes": "1"
      },
      "t_bytes32": {
        "encoding": "inplace",
        "label": "bytes32",
        "numberOfBytes": "32"
      },
      "t_mapping(t_address,t_bool)": {
        "encoding": "mapping",
        "key": "t_address",
        "label": "mapping(address => bool)",
        "numberOfBytes": "32",
        "value": "t_bool"
      },
      "t_mapping(t_address,t_struct(Deposit)674_storage)": {
        "encoding": "mapping",
        "key": "t_address",
        "label": "mapping(address => struct ETHPool.Deposit)",
        "numberOfBytes": "32",
        "value": "t_struct(Deposit)674_storage"
      },
      "t_mapping(t_bytes32,t_struct(RoleData)19_storage)": {
        "encoding": "mapping",
        "key": "t_bytes32",
        "label": "mapping(bytes32 => struct AccessControl.RoleData)",
        "numberOfBytes": "32",
        "value": "t_struct(RoleData)19_storage"
      },
      "t_mapping(t_uint256,t_struct(RewardsInfo)667_storage)": {
        "encoding": "mapping",
        "key": "t_uint256",
        "label": "mapping(uint256 => struct ETHPool.RewardsInfo)",
        "numberOfBytes": "32",
        "value": "t_struct(RewardsInfo)667_storage"
      },
      "t_struct(Deposit)674_storage": {
        "encoding": "inplace",
        "label": "struct ETHPool.Deposit",
        "members": [
          {
            "astId": 669,
            "contract": "contracts/ETHPool.sol:ETHPool",
            "label": "firstRewardId",
            "offset": 0,
            "slot": "0",
            "type": "t_uint256"
          },
          {
            "astId": 671,
            "contract": "contracts/ETHPool.sol:ETHPool",
            "label": "depositDate",
            "offset": 0,
            "slot": "1",
            "type": "t_uint256"
          },
          {
            "astId": 673,
            "contract": "contracts/ETHPool.sol:ETHPool",
            "label": "amount",
            "offset": 0,
            "slot": "2",
            "type": "t_uint256"
          }
        ],
        "numberOfBytes": "96"
      },
      "t_struct(RewardsInfo)667_storage": {
        "encoding": "inplace",
        "label": "struct ETHPool.RewardsInfo",
        "members": [
          {
            "astId": 660,
            "contract": "contracts/ETHPool.sol:ETHPool",
            "label": "rewardId",
            "offset": 0,
            "slot": "0",
            "type": "t_uint256"
          },
          {
            "astId": 662,
            "contract": "contracts/ETHPool.sol:ETHPool",
            "label": "stakeLimitDate",
            "offset": 0,
            "slot": "1",
            "type": "t_uint256"
          },
          {
            "astId": 664,
            "contract": "contracts/ETHPool.sol:ETHPool",
            "label": "totalDeposits",
            "offset": 0,
            "slot": "2",
            "type": "t_uint256"
          },
          {
            "astId": 666,
            "contract": "contracts/ETHPool.sol:ETHPool",
            "label": "amount",
            "offset": 0,
            "slot": "3",
            "type": "t_uint256"
          }
        ],
        "numberOfBytes": "128"
      },
      "t_struct(RoleData)19_storage": {
        "encoding": "inplace",
        "label": "struct AccessControl.RoleData",
        "members": [
          {
            "astId": 16,
            "contract": "contracts/ETHPool.sol:ETHPool",
            "label": "members",
            "offset": 0,
            "slot": "0",
            "type": "t_mapping(t_address,t_bool)"
          },
          {
            "astId": 18,
            "contract": "contracts/ETHPool.sol:ETHPool",
            "label": "adminRole",
            "offset": 0,
            "slot": "1",
            "type": "t_bytes32"
          }
        ],
        "numberOfBytes": "64"
      },
      "t_uint256": {
        "encoding": "inplace",
        "label": "uint256",
        "numberOfBytes": "32"
      }
    }
  }
}